{
  "_format": "hh-sol-artifact-1",
  "contractName": "DebtToken",
  "sourceName": "contracts/DebtToken.sol",
  "abi": [
    {
      "inputs": [
        {
          "internalType": "string",
          "name": "name",
          "type": "string"
        },
        {
          "internalType": "string",
          "name": "symbol",
          "type": "string"
        },
        {
          "internalType": "address",
          "name": "owner",
          "type": "address"
        },
        {
          "internalType": "uint256",
          "name": "_maxSupply",
          "type": "uint256"
        }
      ],
      "stateMutability": "nonpayable",
      "type": "constructor"
    },
    {
      "inputs": [
        {
          "internalType": "address",
          "name": "spender",
          "type": "address"
        },
        {
          "internalType": "uint256",
          "name": "allowance",
          "type": "uint256"
        },
        {
          "internalType": "uint256",
          "name": "needed",
          "type": "uint256"
        }
      ],
      "name": "ERC20InsufficientAllowance",
      "type": "error"
    },
    {
      "inputs": [
        {
          "internalType": "address",
          "name": "sender",
          "type": "address"
        },
        {
          "internalType": "uint256",
          "name": "balance",
          "type": "uint256"
        },
        {
          "internalType": "uint256",
          "name": "needed",
          "type": "uint256"
        }
      ],
      "name": "ERC20InsufficientBalance",
      "type": "error"
    },
    {
      "inputs": [
        {
          "internalType": "address",
          "name": "approver",
          "type": "address"
        }
      ],
      "name": "ERC20InvalidApprover",
      "type": "error"
    },
    {
      "inputs": [
        {
          "internalType": "address",
          "name": "receiver",
          "type": "address"
        }
      ],
      "name": "ERC20InvalidReceiver",
      "type": "error"
    },
    {
      "inputs": [
        {
          "internalType": "address",
          "name": "sender",
          "type": "address"
        }
      ],
      "name": "ERC20InvalidSender",
      "type": "error"
    },
    {
      "inputs": [
        {
          "internalType": "address",
          "name": "spender",
          "type": "address"
        }
      ],
      "name": "ERC20InvalidSpender",
      "type": "error"
    },
    {
      "inputs": [
        {
          "internalType": "address",
          "name": "owner",
          "type": "address"
        }
      ],
      "name": "OwnableInvalidOwner",
      "type": "error"
    },
    {
      "inputs": [
        {
          "internalType": "address",
          "name": "account",
          "type": "address"
        }
      ],
      "name": "OwnableUnauthorizedAccount",
      "type": "error"
    },
    {
      "anonymous": false,
      "inputs": [
        {
          "indexed": true,
          "internalType": "address",
          "name": "owner",
          "type": "address"
        },
        {
          "indexed": true,
          "internalType": "address",
          "name": "spender",
          "type": "address"
        },
        {
          "indexed": false,
          "internalType": "uint256",
          "name": "value",
          "type": "uint256"
        }
      ],
      "name": "Approval",
      "type": "event"
    },
    {
      "anonymous": false,
      "inputs": [
        {
          "indexed": true,
          "internalType": "address",
          "name": "previousOwner",
          "type": "address"
        },
        {
          "indexed": true,
          "internalType": "address",
          "name": "newOwner",
          "type": "address"
        }
      ],
      "name": "OwnershipTransferred",
      "type": "event"
    },
    {
      "anonymous": false,
      "inputs": [
        {
          "indexed": true,
          "internalType": "address",
          "name": "to",
          "type": "address"
        },
        {
          "indexed": false,
          "internalType": "uint256",
          "name": "amount",
          "type": "uint256"
        }
      ],
      "name": "TokensMinted",
      "type": "event"
    },
    {
      "anonymous": false,
      "inputs": [
        {
          "indexed": true,
          "internalType": "address",
          "name": "from",
          "type": "address"
        },
        {
          "indexed": true,
          "internalType": "address",
          "name": "to",
          "type": "address"
        },
        {
          "indexed": false,
          "internalType": "uint256",
          "name": "value",
          "type": "uint256"
        }
      ],
      "name": "Transfer",
      "type": "event"
    },
    {
      "inputs": [
        {
          "internalType": "address",
          "name": "owner",
          "type": "address"
        },
        {
          "internalType": "address",
          "name": "spender",
          "type": "address"
        }
      ],
      "name": "allowance",
      "outputs": [
        {
          "internalType": "uint256",
          "name": "",
          "type": "uint256"
        }
      ],
      "stateMutability": "view",
      "type": "function"
    },
    {
      "inputs": [
        {
          "internalType": "address",
          "name": "spender",
          "type": "address"
        },
        {
          "internalType": "uint256",
          "name": "value",
          "type": "uint256"
        }
      ],
      "name": "approve",
      "outputs": [
        {
          "internalType": "bool",
          "name": "",
          "type": "bool"
        }
      ],
      "stateMutability": "nonpayable",
      "type": "function"
    },
    {
      "inputs": [
        {
          "internalType": "address",
          "name": "account",
          "type": "address"
        }
      ],
      "name": "balanceOf",
      "outputs": [
        {
          "internalType": "uint256",
          "name": "",
          "type": "uint256"
        }
      ],
      "stateMutability": "view",
      "type": "function"
    },
    {
      "inputs": [],
      "name": "decimals",
      "outputs": [
        {
          "internalType": "uint8",
          "name": "",
          "type": "uint8"
        }
      ],
      "stateMutability": "view",
      "type": "function"
    },
    {
      "inputs": [],
      "name": "maxSupply",
      "outputs": [
        {
          "internalType": "uint256",
          "name": "",
          "type": "uint256"
        }
      ],
      "stateMutability": "view",
      "type": "function"
    },
    {
      "inputs": [
        {
          "internalType": "address",
          "name": "to",
          "type": "address"
        },
        {
          "internalType": "uint256",
          "name": "amount",
          "type": "uint256"
        }
      ],
      "name": "mint",
      "outputs": [],
      "stateMutability": "nonpayable",
      "type": "function"
    },
    {
      "inputs": [],
      "name": "name",
      "outputs": [
        {
          "internalType": "string",
          "name": "",
          "type": "string"
        }
      ],
      "stateMutability": "view",
      "type": "function"
    },
    {
      "inputs": [],
      "name": "owner",
      "outputs": [
        {
          "internalType": "address",
          "name": "",
          "type": "address"
        }
      ],
      "stateMutability": "view",
      "type": "function"
    },
    {
      "inputs": [],
      "name": "renounceOwnership",
      "outputs": [],
      "stateMutability": "nonpayable",
      "type": "function"
    },
    {
      "inputs": [
        {
          "internalType": "uint256",
          "name": "newMaxSupply",
          "type": "uint256"
        }
      ],
      "name": "setMaxSupply",
      "outputs": [],
      "stateMutability": "nonpayable",
      "type": "function"
    },
    {
      "inputs": [],
      "name": "symbol",
      "outputs": [
        {
          "internalType": "string",
          "name": "",
          "type": "string"
        }
      ],
      "stateMutability": "view",
      "type": "function"
    },
    {
      "inputs": [],
      "name": "totalSupply",
      "outputs": [
        {
          "internalType": "uint256",
          "name": "",
          "type": "uint256"
        }
      ],
      "stateMutability": "view",
      "type": "function"
    },
    {
      "inputs": [
        {
          "internalType": "address",
          "name": "to",
          "type": "address"
        },
        {
          "internalType": "uint256",
          "name": "value",
          "type": "uint256"
        }
      ],
      "name": "transfer",
      "outputs": [
        {
          "internalType": "bool",
          "name": "",
          "type": "bool"
        }
      ],
      "stateMutability": "nonpayable",
      "type": "function"
    },
    {
      "inputs": [
        {
          "internalType": "address",
          "name": "from",
          "type": "address"
        },
        {
          "internalType": "address",
          "name": "to",
          "type": "address"
        },
        {
          "internalType": "uint256",
          "name": "value",
          "type": "uint256"
        }
      ],
      "name": "transferFrom",
      "outputs": [
        {
          "internalType": "bool",
          "name": "",
          "type": "bool"
        }
      ],
      "stateMutability": "nonpayable",
      "type": "function"
    },
    {
      "inputs": [
        {
          "internalType": "address",
          "name": "newOwner",
          "type": "address"
        }
      ],
      "name": "transferOwnership",
      "outputs": [],
      "stateMutability": "nonpayable",
      "type": "function"
    }
  ],
  "bytecode": "0x608060405234801561001057600080fd5b50604051610f9b380380610f9b83398101604081905261002f91610351565b818484600361003e838261046b565b50600461004b828261046b565b5050506001600160a01b03811661007d57604051631e4fbdf760e01b8152600060048201526024015b60405180910390fd5b610086816100e2565b5060068190556100968282610134565b816001600160a01b03167f3f2c9d57c068687834f0de942a9babb9e5acab57d516d3480a3c16ee165a4273826040516100d191815260200190565b60405180910390a250505050610550565b600580546001600160a01b038381166001600160a01b0319831681179093556040519116919082907f8be0079c531659141344cd1fd0a4f28419497f9722a3daafe3b4186f6b6457e090600090a35050565b6001600160a01b03821661015e5760405163ec442f0560e01b815260006004820152602401610074565b61016a6000838361016e565b5050565b6001600160a01b03831661019957806002600082825461018e9190610529565b9091555061020b9050565b6001600160a01b038316600090815260208190526040902054818110156101ec5760405163391434e360e21b81526001600160a01b03851660048201526024810182905260448101839052606401610074565b6001600160a01b03841660009081526020819052604090209082900390555b6001600160a01b03821661022757600280548290039055610246565b6001600160a01b03821660009081526020819052604090208054820190555b816001600160a01b0316836001600160a01b03167fddf252ad1be2c89b69c2b068fc378daa952ba7f163c4a11628f55a4df523b3ef8360405161028b91815260200190565b60405180910390a3505050565b634e487b7160e01b600052604160045260246000fd5b600082601f8301126102bf57600080fd5b81516001600160401b038111156102d8576102d8610298565b604051601f8201601f19908116603f011681016001600160401b038111828210171561030657610306610298565b60405281815283820160200185101561031e57600080fd5b60005b8281101561033d57602081860181015183830182015201610321565b506000918101602001919091529392505050565b6000806000806080858703121561036757600080fd5b84516001600160401b0381111561037d57600080fd5b610389878288016102ae565b602087015190955090506001600160401b038111156103a757600080fd5b6103b3878288016102ae565b604087015190945090506001600160a01b03811681146103d257600080fd5b6060959095015193969295505050565b600181811c908216806103f657607f821691505b60208210810361041657634e487b7160e01b600052602260045260246000fd5b50919050565b601f82111561046657806000526020600020601f840160051c810160208510156104435750805b601f840160051c820191505b81811015610463576000815560010161044f565b50505b505050565b81516001600160401b0381111561048457610484610298565b6104988161049284546103e2565b8461041c565b6020601f8211600181146104cc57600083156104b45750848201515b600019600385901b1c1916600184901b178455610463565b600084815260208120601f198516915b828110156104fc57878501518255602094850194600190920191016104dc565b508482101561051a5786840151600019600387901b60f8161c191681555b50505050600190811b01905550565b8082018082111561054a57634e487b7160e01b600052601160045260246000fd5b92915050565b610a3c8061055f6000396000f3fe608060405234801561001057600080fd5b50600436106100f55760003560e01c806370a0823111610097578063a9059cbb11610066578063a9059cbb146101eb578063d5abeb01146101fe578063dd62ed3e14610207578063f2fde38b1461024057600080fd5b806370a0823114610197578063715018a6146101c05780638da5cb5b146101c857806395d89b41146101e357600080fd5b806323b872dd116100d357806323b872dd1461014d578063313ce5671461016057806340c10f191461016f5780636f8b44b01461018457600080fd5b806306fdde03146100fa578063095ea7b31461011857806318160ddd1461013b575b600080fd5b610102610253565b60405161010f919061086c565b60405180910390f35b61012b6101263660046108d6565b6102e5565b604051901515815260200161010f565b6002545b60405190815260200161010f565b61012b61015b366004610900565b6102ff565b6040516012815260200161010f565b61018261017d3660046108d6565b610323565b005b61018261019236600461093d565b6103e6565b61013f6101a5366004610956565b6001600160a01b031660009081526020819052604090205490565b610182610455565b6005546040516001600160a01b03909116815260200161010f565b610102610469565b61012b6101f93660046108d6565b610478565b61013f60065481565b61013f610215366004610978565b6001600160a01b03918216600090815260016020908152604080832093909416825291909152205490565b61018261024e366004610956565b610486565b606060038054610262906109ab565b80601f016020809104026020016040519081016040528092919081815260200182805461028e906109ab565b80156102db5780601f106102b0576101008083540402835291602001916102db565b820191906000526020600020905b8154815290600101906020018083116102be57829003601f168201915b5050505050905090565b6000336102f38185856104c4565b60019150505b92915050565b60003361030d8582856104d6565b610318858585610555565b506001949350505050565b61032b6105b4565b6006548161033860025490565b61034291906109e5565b11156103955760405162461bcd60e51b815260206004820152601d60248201527f44656274546f6b656e3a2065786365656473206d617820737570706c7900000060448201526064015b60405180910390fd5b61039f82826105e1565b816001600160a01b03167f3f2c9d57c068687834f0de942a9babb9e5acab57d516d3480a3c16ee165a4273826040516103da91815260200190565b60405180910390a25050565b6103ee6105b4565b6002548110156104505760405162461bcd60e51b815260206004820152602760248201527f44656274546f6b656e3a206e6577206d61782062656c6f772063757272656e7460448201526620737570706c7960c81b606482015260840161038c565b600655565b61045d6105b4565b610467600061061b565b565b606060048054610262906109ab565b6000336102f3818585610555565b61048e6105b4565b6001600160a01b0381166104b857604051631e4fbdf760e01b81526000600482015260240161038c565b6104c18161061b565b50565b6104d1838383600161066d565b505050565b6001600160a01b0383811660009081526001602090815260408083209386168352929052205460001981101561054f578181101561054057604051637dc7a0d960e11b81526001600160a01b0384166004820152602481018290526044810183905260640161038c565b61054f8484848403600061066d565b50505050565b6001600160a01b03831661057f57604051634b637e8f60e11b81526000600482015260240161038c565b6001600160a01b0382166105a95760405163ec442f0560e01b81526000600482015260240161038c565b6104d1838383610742565b6005546001600160a01b031633146104675760405163118cdaa760e01b815233600482015260240161038c565b6001600160a01b03821661060b5760405163ec442f0560e01b81526000600482015260240161038c565b61061760008383610742565b5050565b600580546001600160a01b038381166001600160a01b0319831681179093556040519116919082907f8be0079c531659141344cd1fd0a4f28419497f9722a3daafe3b4186f6b6457e090600090a35050565b6001600160a01b0384166106975760405163e602df0560e01b81526000600482015260240161038c565b6001600160a01b0383166106c157604051634a1406b160e11b81526000600482015260240161038c565b6001600160a01b038085166000908152600160209081526040808320938716835292905220829055801561054f57826001600160a01b0316846001600160a01b03167f8c5be1e5ebec7d5bd14f71427d1e84f3dd0314c0f7b2291e5b200ac8c7c3b9258460405161073491815260200190565b60405180910390a350505050565b6001600160a01b03831661076d57806002600082825461076291906109e5565b909155506107df9050565b6001600160a01b038316600090815260208190526040902054818110156107c05760405163391434e360e21b81526001600160a01b0385166004820152602481018290526044810183905260640161038c565b6001600160a01b03841660009081526020819052604090209082900390555b6001600160a01b0382166107fb5760028054829003905561081a565b6001600160a01b03821660009081526020819052604090208054820190555b816001600160a01b0316836001600160a01b03167fddf252ad1be2c89b69c2b068fc378daa952ba7f163c4a11628f55a4df523b3ef8360405161085f91815260200190565b60405180910390a3505050565b602081526000825180602084015260005b8181101561089a576020818601810151604086840101520161087d565b506000604082850101526040601f19601f83011684010191505092915050565b80356001600160a01b03811681146108d157600080fd5b919050565b600080604083850312156108e957600080fd5b6108f2836108ba565b946020939093013593505050565b60008060006060848603121561091557600080fd5b61091e846108ba565b925061092c602085016108ba565b929592945050506040919091013590565b60006020828403121561094f57600080fd5b5035919050565b60006020828403121561096857600080fd5b610971826108ba565b9392505050565b6000806040838503121561098b57600080fd5b610994836108ba565b91506109a2602084016108ba565b90509250929050565b600181811c908216806109bf57607f821691505b6020821081036109df57634e487b7160e01b600052602260045260246000fd5b50919050565b808201808211156102f957634e487b7160e01b600052601160045260246000fdfea2646970667358221220256817ab3ba4a2638e8a7d39c6c564fbb40627c284fb20037bb815447a706c0c64736f6c634300081c0033",
  "linkReferences": {},
  "deployedLinkReferences": {}
}